{
    "address": "0xd244A767dD77e4305AF0fefb1aa90a1Ef203e802",
    "abi": [
        {
            "inputs": [
                {
                    "internalType": "address",
                    "name": "priceFeedAddress",
                    "type": "address"
                }
            ],
            "stateMutability": "nonpayable",
            "type": "constructor"
        },
        {
            "stateMutability": "payable",
            "type": "fallback"
        },
        {
            "inputs": [],
            "name": "MINIMUM_USD",
            "outputs": [
                {
                    "internalType": "uint256",
                    "name": "",
                    "type": "uint256"
                }
            ],
            "stateMutability": "view",
            "type": "function"
        },
        {
            "inputs": [],
            "name": "cheaperwithdraw",
            "outputs": [],
            "stateMutability": "nonpayable",
            "type": "function"
        },
        {
            "inputs": [],
            "name": "fund",
            "outputs": [],
            "stateMutability": "payable",
            "type": "function"
        },
        {
            "inputs": [
                {
                    "internalType": "address",
                    "name": "funder",
                    "type": "address"
                }
            ],
            "name": "getAddressToFunded",
            "outputs": [
                {
                    "internalType": "uint256",
                    "name": "",
                    "type": "uint256"
                }
            ],
            "stateMutability": "view",
            "type": "function"
        },
        {
            "inputs": [
                {
                    "internalType": "uint256",
                    "name": "index",
                    "type": "uint256"
                }
            ],
            "name": "getFunder",
            "outputs": [
                {
                    "internalType": "address",
                    "name": "",
                    "type": "address"
                }
            ],
            "stateMutability": "view",
            "type": "function"
        },
        {
            "inputs": [],
            "name": "getOwner",
            "outputs": [
                {
                    "internalType": "address",
                    "name": "",
                    "type": "address"
                }
            ],
            "stateMutability": "view",
            "type": "function"
        },
        {
            "inputs": [],
            "name": "getPriceFeed",
            "outputs": [
                {
                    "internalType": "contract AggregatorV3Interface",
                    "name": "",
                    "type": "address"
                }
            ],
            "stateMutability": "view",
            "type": "function"
        },
        {
            "inputs": [],
            "name": "withdraw",
            "outputs": [],
            "stateMutability": "nonpayable",
            "type": "function"
        },
        {
            "stateMutability": "payable",
            "type": "receive"
        }
    ],
    "transactionHash": "0xc45e2013005a880d051c727a1e1eb4ac42e6d0b81c1a579a3b72265ef28a3a67",
    "args": [
        "0x694AA1769357215DE4FAC081bf1f309aDC325306"
    ],
    "numDeployments": 3,
    "solcInputHash": "3d55f94f5ec34ee153d723bc031fe8c3",
    "bytecode": "0x60a06040523480156200001157600080fd5b506040516200137b3803806200137b833981810160405281019062000037919062000120565b3373ffffffffffffffffffffffffffffffffffffffff1660808173ffffffffffffffffffffffffffffffffffffffff1660601b8152505080600260006101000a81548173ffffffffffffffffffffffffffffffffffffffff021916908373ffffffffffffffffffffffffffffffffffffffff1602179055505062000152565b600080fd5b600073ffffffffffffffffffffffffffffffffffffffff82169050919050565b6000620000e882620000bb565b9050919050565b620000fa81620000db565b81146200010657600080fd5b50565b6000815190506200011a81620000ef565b92915050565b600060208284031215620001395762000138620000b6565b5b6000620001498482850162000109565b91505092915050565b60805160601c6111fc6200017f6000396000818161034801528181610591015261084d01526111fc6000f3fe60806040526004361061007f5760003560e01c8063893d20e81161004e578063893d20e81461012e5780639e87a5cd14610159578063b60d428814610184578063d7b4750c1461018e5761008e565b806317730c93146100985780633ccfd60b146100d557806367bf350b146100ec5780636b69a592146101035761008e565b3661008e5761008c6101cb565b005b6100966101cb565b005b3480156100a457600080fd5b506100bf60048036038101906100ba9190610ac8565b6102fd565b6040516100cc9190610b0e565b60405180910390f35b3480156100e157600080fd5b506100ea610346565b005b3480156100f857600080fd5b5061010161058f565b005b34801561010f57600080fd5b5061011861083c565b6040516101259190610b0e565b60405180910390f35b34801561013a57600080fd5b50610143610849565b6040516101509190610b38565b60405180910390f35b34801561016557600080fd5b5061016e610871565b60405161017b9190610bb2565b60405180910390f35b61018c6101cb565b005b34801561019a57600080fd5b506101b560048036038101906101b09190610bf9565b61089b565b6040516101c29190610b38565b60405180910390f35b6802b5e3af16b188000061020134600260009054906101000a900473ffffffffffffffffffffffffffffffffffffffff166108e2565b1015610242576040517f08c379a000000000000000000000000000000000000000000000000000000000815260040161023990610c83565b60405180910390fd5b6000339080600181540180825580915050600190039060005260206000200160009091909190916101000a81548173ffffffffffffffffffffffffffffffffffffffff021916908373ffffffffffffffffffffffffffffffffffffffff16021790555034600160003373ffffffffffffffffffffffffffffffffffffffff1673ffffffffffffffffffffffffffffffffffffffff16815260200190815260200160002060008282546102f49190610cd2565b92505081905550565b6000600160008373ffffffffffffffffffffffffffffffffffffffff1673ffffffffffffffffffffffffffffffffffffffff168152602001908152602001600020549050919050565b7f000000000000000000000000000000000000000000000000000000000000000073ffffffffffffffffffffffffffffffffffffffff163373ffffffffffffffffffffffffffffffffffffffff16146103d4576040517f08c379a00000000000000000000000000000000000000000000000000000000081526004016103cb90610d74565b60405180910390fd5b60005b60008054905081101561047f5760008082815481106103f9576103f8610d94565b5b9060005260206000200160009054906101000a900473ffffffffffffffffffffffffffffffffffffffff1690506000600160008373ffffffffffffffffffffffffffffffffffffffff1673ffffffffffffffffffffffffffffffffffffffff1681526020019081526020016000208190555050808061047790610dc3565b9150506103d7565b50600067ffffffffffffffff81111561049b5761049a610e0c565b5b6040519080825280602002602001820160405280156104c95781602001602082028036833780820191505090505b50600090805190602001906104df9291906109be565b5060003373ffffffffffffffffffffffffffffffffffffffff164760405161050690610e6c565b60006040518083038185875af1925050503d8060008114610543576040519150601f19603f3d011682016040523d82523d6000602084013e610548565b606091505b505090508061058c576040517f08c379a000000000000000000000000000000000000000000000000000000000815260040161058390610ecd565b60405180910390fd5b50565b7f000000000000000000000000000000000000000000000000000000000000000073ffffffffffffffffffffffffffffffffffffffff163373ffffffffffffffffffffffffffffffffffffffff161461061d576040517f08c379a000000000000000000000000000000000000000000000000000000000815260040161061490610d74565b60405180910390fd5b6000808054806020026020016040519081016040528092919081815260200182805480156106a057602002820191906000526020600020905b8160009054906101000a900473ffffffffffffffffffffffffffffffffffffffff1673ffffffffffffffffffffffffffffffffffffffff1681526020019060010190808311610656575b5050505050905060005b815181101561072b5760008282815181106106c8576106c7610d94565b5b602002602001015190506000600160008373ffffffffffffffffffffffffffffffffffffffff1673ffffffffffffffffffffffffffffffffffffffff1681526020019081526020016000208190555050808061072390610dc3565b9150506106aa565b50600067ffffffffffffffff81111561074757610746610e0c565b5b6040519080825280602002602001820160405280156107755781602001602082028036833780820191505090505b506000908051906020019061078b9291906109be565b5060003373ffffffffffffffffffffffffffffffffffffffff16476040516107b290610e6c565b60006040518083038185875af1925050503d80600081146107ef576040519150601f19603f3d011682016040523d82523d6000602084013e6107f4565b606091505b5050905080610838576040517f08c379a000000000000000000000000000000000000000000000000000000000815260040161082f90610ecd565b60405180910390fd5b5050565b6802b5e3af16b188000081565b60007f0000000000000000000000000000000000000000000000000000000000000000905090565b6000600260009054906101000a900473ffffffffffffffffffffffffffffffffffffffff16905090565b60008082815481106108b0576108af610d94565b5b9060005260206000200160009054906101000a900473ffffffffffffffffffffffffffffffffffffffff169050919050565b6000806108ee8361091e565b90506000670de0b6b3a764000085836109079190610eed565b6109119190610f76565b9050809250505092915050565b6000808273ffffffffffffffffffffffffffffffffffffffff1663feaf968c6040518163ffffffff1660e01b815260040160a06040518083038186803b15801561096757600080fd5b505afa15801561097b573d6000803e3d6000fd5b505050506040513d601f19601f8201168201806040525081019061099f9190611034565b5050509150506402540be400816109b691906110af565b915050919050565b828054828255906000526020600020908101928215610a37579160200282015b82811115610a365782518260006101000a81548173ffffffffffffffffffffffffffffffffffffffff021916908373ffffffffffffffffffffffffffffffffffffffff160217905550916020019190600101906109de565b5b509050610a449190610a48565b5090565b5b80821115610a61576000816000905550600101610a49565b5090565b600080fd5b600073ffffffffffffffffffffffffffffffffffffffff82169050919050565b6000610a9582610a6a565b9050919050565b610aa581610a8a565b8114610ab057600080fd5b50565b600081359050610ac281610a9c565b92915050565b600060208284031215610ade57610add610a65565b5b6000610aec84828501610ab3565b91505092915050565b6000819050919050565b610b0881610af5565b82525050565b6000602082019050610b236000830184610aff565b92915050565b610b3281610a8a565b82525050565b6000602082019050610b4d6000830184610b29565b92915050565b6000819050919050565b6000610b78610b73610b6e84610a6a565b610b53565b610a6a565b9050919050565b6000610b8a82610b5d565b9050919050565b6000610b9c82610b7f565b9050919050565b610bac81610b91565b82525050565b6000602082019050610bc76000830184610ba3565b92915050565b610bd681610af5565b8114610be157600080fd5b50565b600081359050610bf381610bcd565b92915050565b600060208284031215610c0f57610c0e610a65565b5b6000610c1d84828501610be4565b91505092915050565b600082825260208201905092915050565b7f596f75206e65656420746f207370656e64206d6f726520455448210000000000600082015250565b6000610c6d601b83610c26565b9150610c7882610c37565b602082019050919050565b60006020820190508181036000830152610c9c81610c60565b9050919050565b7f4e487b7100000000000000000000000000000000000000000000000000000000600052601160045260246000fd5b6000610cdd82610af5565b9150610ce883610af5565b9250827fffffffffffffffffffffffffffffffffffffffffffffffffffffffffffffffff03821115610d1d57610d1c610ca3565b5b828201905092915050565b7f73656e646572206973206e6f7420695f6f776e65720000000000000000000000600082015250565b6000610d5e601583610c26565b9150610d6982610d28565b602082019050919050565b60006020820190508181036000830152610d8d81610d51565b9050919050565b7f4e487b7100000000000000000000000000000000000000000000000000000000600052603260045260246000fd5b6000610dce82610af5565b91507fffffffffffffffffffffffffffffffffffffffffffffffffffffffffffffffff821415610e0157610e00610ca3565b5b600182019050919050565b7f4e487b7100000000000000000000000000000000000000000000000000000000600052604160045260246000fd5b600081905092915050565b50565b6000610e56600083610e3b565b9150610e6182610e46565b600082019050919050565b6000610e7782610e49565b9150819050919050565b7f63616c6c206661696c6564000000000000000000000000000000000000000000600082015250565b6000610eb7600b83610c26565b9150610ec282610e81565b602082019050919050565b60006020820190508181036000830152610ee681610eaa565b9050919050565b6000610ef882610af5565b9150610f0383610af5565b9250817fffffffffffffffffffffffffffffffffffffffffffffffffffffffffffffffff0483118215151615610f3c57610f3b610ca3565b5b828202905092915050565b7f4e487b7100000000000000000000000000000000000000000000000000000000600052601260045260246000fd5b6000610f8182610af5565b9150610f8c83610af5565b925082610f9c57610f9b610f47565b5b828204905092915050565b600069ffffffffffffffffffff82169050919050565b610fc681610fa7565b8114610fd157600080fd5b50565b600081519050610fe381610fbd565b92915050565b6000819050919050565b610ffc81610fe9565b811461100757600080fd5b50565b60008151905061101981610ff3565b92915050565b60008151905061102e81610bcd565b92915050565b600080600080600060a086880312156110505761104f610a65565b5b600061105e88828901610fd4565b955050602061106f8882890161100a565b94505060406110808882890161101f565b93505060606110918882890161101f565b92505060806110a288828901610fd4565b9150509295509295909350565b60006110ba82610fe9565b91506110c583610fe9565b9250827f7fffffffffffffffffffffffffffffffffffffffffffffffffffffffffffffff048211600084136000841316161561110457611103610ca3565b5b817f8000000000000000000000000000000000000000000000000000000000000000058312600084126000841316161561114157611140610ca3565b5b827f8000000000000000000000000000000000000000000000000000000000000000058212600084136000841216161561117e5761117d610ca3565b5b827f7fffffffffffffffffffffffffffffffffffffffffffffffffffffffffffffff05821260008412600084121616156111bb576111ba610ca3565b5b82820290509291505056fea2646970667358221220f221c32697fed22516641142298fcf41f8eb28f68fcb776714635fd1f85d453564736f6c63430008080033",
    "devdoc": {
        "author": "liuhuxian",
        "details": "This implements price feed as our library",
        "kind": "dev",
        "methods": {
            "fund()": {
                "details": "This implements price feeds as out library"
            }
        },
        "title": "A contract for corwd funding",
        "version": 1
    },
    "userdoc": {
        "kind": "user",
        "methods": {
            "fund()": {
                "notice": "This function funds this contract"
            }
        },
        "notice": "This contract is to demo a sample funding contract",
        "version": 1
    },
    "storageLayout": {
        "storage": [
            {
                "astId": 111,
                "contract": "contracts/fundMe.sol:FundMe",
                "label": "funders",
                "offset": 0,
                "slot": "0",
                "type": "t_array(t_address)dyn_storage"
            },
            {
                "astId": 115,
                "contract": "contracts/fundMe.sol:FundMe",
                "label": "addressToFunded",
                "offset": 0,
                "slot": "1",
                "type": "t_mapping(t_address,t_uint256)"
            },
            {
                "astId": 125,
                "contract": "contracts/fundMe.sol:FundMe",
                "label": "priceFeed",
                "offset": 0,
                "slot": "2",
                "type": "t_contract(AggregatorV3Interface)45"
            }
        ],
        "types": {
            "t_address": {
                "encoding": "inplace",
                "label": "address",
                "numberOfBytes": "20"
            },
            "t_array(t_address)dyn_storage": {
                "base": "t_address",
                "encoding": "dynamic_array",
                "label": "address[]",
                "numberOfBytes": "32"
            },
            "t_contract(AggregatorV3Interface)45": {
                "encoding": "inplace",
                "label": "contract AggregatorV3Interface",
                "numberOfBytes": "20"
            },
            "t_mapping(t_address,t_uint256)": {
                "encoding": "mapping",
                "key": "t_address",
                "label": "mapping(address => uint256)",
                "numberOfBytes": "32",
                "value": "t_uint256"
            },
            "t_uint256": {
                "encoding": "inplace",
                "label": "uint256",
                "numberOfBytes": "32"
            }
        }
    }
}